{
  "_format": "hh-sol-artifact-1",
  "contractName": "TestContract",
  "sourceName": "contracts/nordle.sol",
  "abi": [
    {
      "inputs": [
        {
          "internalType": "string",
          "name": "word",
          "type": "string"
        }
      ],
      "stateMutability": "nonpayable",
      "type": "constructor"
    },
    {
      "anonymous": false,
      "inputs": [
        {
          "indexed": true,
          "internalType": "address",
          "name": "owner",
          "type": "address"
        },
        {
          "indexed": true,
          "internalType": "address",
          "name": "approved",
          "type": "address"
        },
        {
          "indexed": true,
          "internalType": "uint256",
          "name": "tokenId",
          "type": "uint256"
        }
      ],
      "name": "Approval",
      "type": "event"
    },
    {
      "anonymous": false,
      "inputs": [
        {
          "indexed": true,
          "internalType": "address",
          "name": "owner",
          "type": "address"
        },
        {
          "indexed": true,
          "internalType": "address",
          "name": "operator",
          "type": "address"
        },
        {
          "indexed": false,
          "internalType": "bool",
          "name": "approved",
          "type": "bool"
        }
      ],
      "name": "ApprovalForAll",
      "type": "event"
    },
    {
      "anonymous": false,
      "inputs": [
        {
          "indexed": true,
          "internalType": "address",
          "name": "previousOwner",
          "type": "address"
        },
        {
          "indexed": true,
          "internalType": "address",
          "name": "newOwner",
          "type": "address"
        }
      ],
      "name": "OwnershipTransferred",
      "type": "event"
    },
    {
      "anonymous": false,
      "inputs": [
        {
          "indexed": true,
          "internalType": "address",
          "name": "from",
          "type": "address"
        },
        {
          "indexed": true,
          "internalType": "address",
          "name": "to",
          "type": "address"
        },
        {
          "indexed": true,
          "internalType": "uint256",
          "name": "tokenId",
          "type": "uint256"
        }
      ],
      "name": "Transfer",
      "type": "event"
    },
    {
      "inputs": [
        {
          "internalType": "address",
          "name": "to",
          "type": "address"
        },
        {
          "internalType": "uint256",
          "name": "tokenId",
          "type": "uint256"
        }
      ],
      "name": "approve",
      "outputs": [],
      "stateMutability": "nonpayable",
      "type": "function"
    },
    {
      "inputs": [
        {
          "internalType": "address",
          "name": "owner",
          "type": "address"
        }
      ],
      "name": "balanceOf",
      "outputs": [
        {
          "internalType": "uint256",
          "name": "",
          "type": "uint256"
        }
      ],
      "stateMutability": "view",
      "type": "function"
    },
    {
      "inputs": [],
      "name": "currentGameTimeStamp",
      "outputs": [
        {
          "internalType": "uint256",
          "name": "",
          "type": "uint256"
        }
      ],
      "stateMutability": "view",
      "type": "function"
    },
    {
      "inputs": [
        {
          "internalType": "address",
          "name": "",
          "type": "address"
        }
      ],
      "name": "currentToken",
      "outputs": [
        {
          "internalType": "uint256",
          "name": "",
          "type": "uint256"
        }
      ],
      "stateMutability": "view",
      "type": "function"
    },
    {
      "inputs": [
        {
          "internalType": "uint256",
          "name": "tokenId",
          "type": "uint256"
        }
      ],
      "name": "getApproved",
      "outputs": [
        {
          "internalType": "address",
          "name": "",
          "type": "address"
        }
      ],
      "stateMutability": "view",
      "type": "function"
    },
    {
      "inputs": [
        {
          "internalType": "string",
          "name": "inputString",
          "type": "string"
        }
      ],
      "name": "guessWord",
      "outputs": [],
      "stateMutability": "nonpayable",
      "type": "function"
    },
    {
      "inputs": [
        {
          "internalType": "address",
          "name": "owner",
          "type": "address"
        },
        {
          "internalType": "address",
          "name": "operator",
          "type": "address"
        }
      ],
      "name": "isApprovedForAll",
      "outputs": [
        {
          "internalType": "bool",
          "name": "",
          "type": "bool"
        }
      ],
      "stateMutability": "view",
      "type": "function"
    },
    {
      "inputs": [
        {
          "internalType": "address",
          "name": "",
          "type": "address"
        }
      ],
      "name": "lastGameTimeStamp",
      "outputs": [
        {
          "internalType": "uint256",
          "name": "",
          "type": "uint256"
        }
      ],
      "stateMutability": "view",
      "type": "function"
    },
    {
      "inputs": [],
      "name": "maxTries",
      "outputs": [
        {
          "internalType": "uint8",
          "name": "",
          "type": "uint8"
        }
      ],
      "stateMutability": "view",
      "type": "function"
    },
    {
      "inputs": [],
      "name": "name",
      "outputs": [
        {
          "internalType": "string",
          "name": "",
          "type": "string"
        }
      ],
      "stateMutability": "view",
      "type": "function"
    },
    {
      "inputs": [],
      "name": "nordleNumber",
      "outputs": [
        {
          "internalType": "uint8",
          "name": "",
          "type": "uint8"
        }
      ],
      "stateMutability": "view",
      "type": "function"
    },
    {
      "inputs": [],
      "name": "owner",
      "outputs": [
        {
          "internalType": "address",
          "name": "",
          "type": "address"
        }
      ],
      "stateMutability": "view",
      "type": "function"
    },
    {
      "inputs": [
        {
          "internalType": "uint256",
          "name": "tokenId",
          "type": "uint256"
        }
      ],
      "name": "ownerOf",
      "outputs": [
        {
          "internalType": "address",
          "name": "",
          "type": "address"
        }
      ],
      "stateMutability": "view",
      "type": "function"
    },
    {
      "inputs": [],
      "name": "renounceOwnership",
      "outputs": [],
      "stateMutability": "nonpayable",
      "type": "function"
    },
    {
      "inputs": [
        {
          "internalType": "address",
          "name": "from",
          "type": "address"
        },
        {
          "internalType": "address",
          "name": "to",
          "type": "address"
        },
        {
          "internalType": "uint256",
          "name": "tokenId",
          "type": "uint256"
        }
      ],
      "name": "safeTransferFrom",
      "outputs": [],
      "stateMutability": "nonpayable",
      "type": "function"
    },
    {
      "inputs": [
        {
          "internalType": "address",
          "name": "from",
          "type": "address"
        },
        {
          "internalType": "address",
          "name": "to",
          "type": "address"
        },
        {
          "internalType": "uint256",
          "name": "tokenId",
          "type": "uint256"
        },
        {
          "internalType": "bytes",
          "name": "_data",
          "type": "bytes"
        }
      ],
      "name": "safeTransferFrom",
      "outputs": [],
      "stateMutability": "nonpayable",
      "type": "function"
    },
    {
      "inputs": [
        {
          "internalType": "address",
          "name": "operator",
          "type": "address"
        },
        {
          "internalType": "bool",
          "name": "approved",
          "type": "bool"
        }
      ],
      "name": "setApprovalForAll",
      "outputs": [],
      "stateMutability": "nonpayable",
      "type": "function"
    },
    {
      "inputs": [
        {
          "internalType": "string",
          "name": "newSecretWord",
          "type": "string"
        }
      ],
      "name": "setSecretWord",
      "outputs": [],
      "stateMutability": "nonpayable",
      "type": "function"
    },
    {
      "inputs": [
        {
          "internalType": "bytes4",
          "name": "interfaceId",
          "type": "bytes4"
        }
      ],
      "name": "supportsInterface",
      "outputs": [
        {
          "internalType": "bool",
          "name": "",
          "type": "bool"
        }
      ],
      "stateMutability": "view",
      "type": "function"
    },
    {
      "inputs": [],
      "name": "symbol",
      "outputs": [
        {
          "internalType": "string",
          "name": "",
          "type": "string"
        }
      ],
      "stateMutability": "view",
      "type": "function"
    },
    {
      "inputs": [],
      "name": "tokenIndex",
      "outputs": [
        {
          "internalType": "uint256",
          "name": "",
          "type": "uint256"
        }
      ],
      "stateMutability": "view",
      "type": "function"
    },
    {
      "inputs": [
        {
          "internalType": "uint256",
          "name": "",
          "type": "uint256"
        },
        {
          "internalType": "uint256",
          "name": "",
          "type": "uint256"
        }
      ],
      "name": "tokenRowEmojis",
      "outputs": [
        {
          "internalType": "string",
          "name": "",
          "type": "string"
        }
      ],
      "stateMutability": "view",
      "type": "function"
    },
    {
      "inputs": [
        {
          "internalType": "uint256",
          "name": "tokenId",
          "type": "uint256"
        }
      ],
      "name": "tokenURI",
      "outputs": [
        {
          "internalType": "string",
          "name": "",
          "type": "string"
        }
      ],
      "stateMutability": "view",
      "type": "function"
    },
    {
      "inputs": [
        {
          "internalType": "address",
          "name": "from",
          "type": "address"
        },
        {
          "internalType": "address",
          "name": "to",
          "type": "address"
        },
        {
          "internalType": "uint256",
          "name": "tokenId",
          "type": "uint256"
        }
      ],
      "name": "transferFrom",
      "outputs": [],
      "stateMutability": "nonpayable",
      "type": "function"
    },
    {
      "inputs": [
        {
          "internalType": "address",
          "name": "newOwner",
          "type": "address"
        }
      ],
      "name": "transferOwnership",
      "outputs": [],
      "stateMutability": "nonpayable",
      "type": "function"
    },
    {
      "inputs": [
        {
          "internalType": "address",
          "name": "",
          "type": "address"
        }
      ],
      "name": "userTries",
      "outputs": [
        {
          "internalType": "uint8",
          "name": "",
          "type": "uint8"
        }
      ],
      "stateMutability": "view",
      "type": "function"
    }
  ],
  "bytecode": "0x60806040526000600960006101000a81548160ff021916908360ff1602179055506000600a553480156200003257600080fd5b5060405162005f7a38038062005f7a833981810160405281019062000058919062000747565b6040518060400160405280600681526020017f4e6f72646c6500000000000000000000000000000000000000000000000000008152506040518060400160405280600481526020017f324e444c000000000000000000000000000000000000000000000000000000008152508160009080519060200190620000dc92919062000594565b508060019080519060200190620000f592919062000594565b505050620001186200010c6200017b60201b60201c565b6200018360201b60201c565b62000129816200024960201b60201c565b620001746040518060400160405280600b81526020017f68656c6c6f20776f726c640000000000000000000000000000000000000000008152506200049e60201b620019b61760201c565b5062000b3f565b600033905090565b6000600660009054906101000a900473ffffffffffffffffffffffffffffffffffffffff16905081600660006101000a81548173ffffffffffffffffffffffffffffffffffffffff021916908373ffffffffffffffffffffffffffffffffffffffff1602179055508173ffffffffffffffffffffffffffffffffffffffff168173ffffffffffffffffffffffffffffffffffffffff167f8be0079c531659141344cd1fd0a4f28419497f9722a3daafe3b4186f6b6457e060405160405180910390a35050565b620002596200017b60201b60201c565b73ffffffffffffffffffffffffffffffffffffffff166200027f6200054160201b60201c565b73ffffffffffffffffffffffffffffffffffffffff1614620002d8576040517f08c379a0000000000000000000000000000000000000000000000000000000008152600401620002cf9062000861565b60405180910390fd5b6000819050600660ff1681511462000327576040517f08c379a00000000000000000000000000000000000000000000000000000000081526004016200031e906200083f565b60405180910390fd5b60005b600660ff168161ffff16101562000427576001600c6000848461ffff16815181106200037f577f4e487b7100000000000000000000000000000000000000000000000000000000600052603260045260246000fd5b602001015160f81c60f81b7effffffffffffffffffffffffffffffffffffffffffffffffffffffffffffff19167effffffffffffffffffffffffffffffffffffffffffffffffffffffffffffff1916815260200190815260200160002060008282829054906101000a900460ff16620003f99190620008fe565b92506101000a81548160ff021916908360ff16021790555080806200041e90620009f9565b9150506200032a565b5081600790805190602001906200044092919062000594565b5080600890805190602001906200045992919062000625565b506001600960008282829054906101000a900460ff166200047b9190620008fe565b92506101000a81548160ff021916908360ff16021790555042600b819055505050565b6200053e81604051602401620004b591906200081b565b6040516020818303038152906040527f41304fac000000000000000000000000000000000000000000000000000000007bffffffffffffffffffffffffffffffffffffffffffffffffffffffff19166020820180517bffffffffffffffffffffffffffffffffffffffffffffffffffffffff83818316178352505050506200056b60201b60201c565b50565b6000600660009054906101000a900473ffffffffffffffffffffffffffffffffffffffff16905090565b60008151905060006a636f6e736f6c652e6c6f679050602083016000808483855afa5050505050565b828054620005a2906200098d565b90600052602060002090601f016020900481019282620005c6576000855562000612565b82601f10620005e157805160ff191683800117855562000612565b8280016001018555821562000612579182015b8281111562000611578251825591602001919060010190620005f4565b5b509050620006219190620006b6565b5090565b82805462000633906200098d565b90600052602060002090601f016020900481019282620006575760008555620006a3565b82601f106200067257805160ff1916838001178555620006a3565b82800160010185558215620006a3579182015b82811115620006a257825182559160200191906001019062000685565b5b509050620006b29190620006b6565b5090565b5b80821115620006d1576000816000905550600101620006b7565b5090565b6000620006ec620006e684620008ac565b62000883565b9050828152602081018484840111156200070557600080fd5b6200071284828562000957565b509392505050565b600082601f8301126200072c57600080fd5b81516200073e848260208601620006d5565b91505092915050565b6000602082840312156200075a57600080fd5b600082015167ffffffffffffffff8111156200077557600080fd5b62000783848285016200071a565b91505092915050565b60006200079982620008e2565b620007a58185620008ed565b9350620007b781856020860162000957565b620007c28162000ab6565b840191505092915050565b6000620007dc603883620008ed565b9150620007e98262000ac7565b604082019050919050565b600062000803602083620008ed565b9150620008108262000b16565b602082019050919050565b600060208201905081810360008301526200083781846200078c565b905092915050565b600060208201905081810360008301526200085a81620007cd565b9050919050565b600060208201905081810360008301526200087c81620007f4565b9050919050565b60006200088f620008a2565b90506200089d8282620009c3565b919050565b6000604051905090565b600067ffffffffffffffff821115620008ca57620008c962000a87565b5b620008d58262000ab6565b9050602081019050919050565b600081519050919050565b600082825260208201905092915050565b60006200090b826200094a565b915062000918836200094a565b92508260ff0382111562000931576200093062000a29565b5b828201905092915050565b600061ffff82169050919050565b600060ff82169050919050565b60005b83811015620009775780820151818401526020810190506200095a565b8381111562000987576000848401525b50505050565b60006002820490506001821680620009a657607f821691505b60208210811415620009bd57620009bc62000a58565b5b50919050565b620009ce8262000ab6565b810181811067ffffffffffffffff82111715620009f057620009ef62000a87565b5b80604052505050565b600062000a06826200093c565b915061ffff82141562000a1e5762000a1d62000a29565b5b600182019050919050565b7f4e487b7100000000000000000000000000000000000000000000000000000000600052601160045260246000fd5b7f4e487b7100000000000000000000000000000000000000000000000000000000600052602260045260246000fd5b7f4e487b7100000000000000000000000000000000000000000000000000000000600052604160045260246000fd5b6000601f19601f8301169050919050565b7f546865206e65772073656372657420776f726420646f6573206e6f742068617660008201527f652074686520636f7272656374206d61784c6574746572730000000000000000602082015250565b7f4f776e61626c653a2063616c6c6572206973206e6f7420746865206f776e6572600082015250565b61542b8062000b4f6000396000f3fe608060405234801561001057600080fd5b506004361061018e5760003560e01c80638da5cb5b116100de578063d284433b11610097578063eb87ed5111610071578063eb87ed51146104a9578063f0771dcc146104c5578063f2fde38b146104e3578063f4e39cc4146104ff5761018e565b8063d284433b1461042b578063d55f92731461045b578063e985e9c5146104795761018e565b80638da5cb5b1461036b57806395d89b4114610389578063a1f09ca7146103a7578063a22cb465146103c3578063b88d4fde146103df578063c87b56dd146103fb5761018e565b806342842e0e1161014b57806363a4fdd01161012557806363a4fdd0146102d157806370a0823114610301578063715018a6146103315780638cfa93851461033b5761018e565b806342842e0e14610267578063629d31a4146102835780636352211e146102a15761018e565b806301ffc9a71461019357806305814ed3146101c357806306fdde03146101e1578063081812fc146101ff578063095ea7b31461022f57806323b872dd1461024b575b600080fd5b6101ad60048036038101906101a89190613a5b565b61052f565b6040516101ba9190614258565b60405180910390f35b6101cb610611565b6040516101d891906144d0565b60405180910390f35b6101e9610624565b6040516101f69190614273565b60405180910390f35b61021960048036038101906102149190613aee565b6106b6565b60405161022691906141f1565b60405180910390f35b61024960048036038101906102449190613a1f565b61073b565b005b61026560048036038101906102609190613919565b610853565b005b610281600480360381019061027c9190613919565b6108b3565b005b61028b6108d3565b60405161029891906144d0565b60405180910390f35b6102bb60048036038101906102b69190613aee565b6108d8565b6040516102c891906141f1565b60405180910390f35b6102eb60048036038101906102e691906138b4565b61098a565b6040516102f891906144b5565b60405180910390f35b61031b600480360381019061031691906138b4565b6109a2565b60405161032891906144b5565b60405180910390f35b610339610a5a565b005b610355600480360381019061035091906138b4565b610ae2565b60405161036291906144d0565b60405180910390f35b610373610b02565b60405161038091906141f1565b60405180910390f35b610391610b2c565b60405161039e9190614273565b60405180910390f35b6103c160048036038101906103bc9190613aad565b610bbe565b005b6103dd60048036038101906103d891906139e3565b610df0565b005b6103f960048036038101906103f49190613968565b610e06565b005b61041560048036038101906104109190613aee565b610e68565b6040516104229190614273565b60405180910390f35b610445600480360381019061044091906138b4565b610f0d565b60405161045291906144b5565b60405180910390f35b610463610f25565b60405161047091906144b5565b60405180910390f35b610493600480360381019061048e91906138dd565b610f2b565b6040516104a09190614258565b60405180910390f35b6104c360048036038101906104be9190613aad565b610fbf565b005b6104cd6117ff565b6040516104da91906144b5565b60405180910390f35b6104fd60048036038101906104f891906138b4565b611805565b005b61051960048036038101906105149190613b17565b6118fd565b6040516105269190614273565b60405180910390f35b60007f80ac58cd000000000000000000000000000000000000000000000000000000007bffffffffffffffffffffffffffffffffffffffffffffffffffffffff1916827bffffffffffffffffffffffffffffffffffffffffffffffffffffffff191614806105fa57507f5b5e139f000000000000000000000000000000000000000000000000000000007bffffffffffffffffffffffffffffffffffffffffffffffffffffffff1916827bffffffffffffffffffffffffffffffffffffffffffffffffffffffff1916145b8061060a575061060982611a4f565b5b9050919050565b600960009054906101000a900460ff1681565b60606000805461063390614806565b80601f016020809104026020016040519081016040528092919081815260200182805461065f90614806565b80156106ac5780601f10610681576101008083540402835291602001916106ac565b820191906000526020600020905b81548152906001019060200180831161068f57829003601f168201915b5050505050905090565b60006106c182611ab9565b610700576040517f08c379a00000000000000000000000000000000000000000000000000000000081526004016106f790614435565b60405180910390fd5b6004600083815260200190815260200160002060009054906101000a900473ffffffffffffffffffffffffffffffffffffffff169050919050565b6000610746826108d8565b90508073ffffffffffffffffffffffffffffffffffffffff168373ffffffffffffffffffffffffffffffffffffffff1614156107b7576040517f08c379a00000000000000000000000000000000000000000000000000000000081526004016107ae90614475565b60405180910390fd5b8073ffffffffffffffffffffffffffffffffffffffff166107d6611b25565b73ffffffffffffffffffffffffffffffffffffffff1614806108055750610804816107ff611b25565b610f2b565b5b610844576040517f08c379a000000000000000000000000000000000000000000000000000000000815260040161083b90614395565b60405180910390fd5b61084e8383611b2d565b505050565b61086461085e611b25565b82611be6565b6108a3576040517f08c379a000000000000000000000000000000000000000000000000000000000815260040161089a90614495565b60405180910390fd5b6108ae838383611cc4565b505050565b6108ce83838360405180602001604052806000815250610e06565b505050565b600681565b6000806002600084815260200190815260200160002060009054906101000a900473ffffffffffffffffffffffffffffffffffffffff169050600073ffffffffffffffffffffffffffffffffffffffff168173ffffffffffffffffffffffffffffffffffffffff161415610981576040517f08c379a0000000000000000000000000000000000000000000000000000000008152600401610978906143d5565b60405180910390fd5b80915050919050565b60116020528060005260406000206000915090505481565b60008073ffffffffffffffffffffffffffffffffffffffff168273ffffffffffffffffffffffffffffffffffffffff161415610a13576040517f08c379a0000000000000000000000000000000000000000000000000000000008152600401610a0a906143b5565b60405180910390fd5b600360008373ffffffffffffffffffffffffffffffffffffffff1673ffffffffffffffffffffffffffffffffffffffff168152602001908152602001600020549050919050565b610a62611b25565b73ffffffffffffffffffffffffffffffffffffffff16610a80610b02565b73ffffffffffffffffffffffffffffffffffffffff1614610ad6576040517f08c379a0000000000000000000000000000000000000000000000000000000008152600401610acd90614455565b60405180910390fd5b610ae06000611f2b565b565b600d6020528060005260406000206000915054906101000a900460ff1681565b6000600660009054906101000a900473ffffffffffffffffffffffffffffffffffffffff16905090565b606060018054610b3b90614806565b80601f0160208091040260200160405190810160405280929190818152602001828054610b6790614806565b8015610bb45780601f10610b8957610100808354040283529160200191610bb4565b820191906000526020600020905b815481529060010190602001808311610b9757829003601f168201915b5050505050905090565b610bc6611b25565b73ffffffffffffffffffffffffffffffffffffffff16610be4610b02565b73ffffffffffffffffffffffffffffffffffffffff1614610c3a576040517f08c379a0000000000000000000000000000000000000000000000000000000008152600401610c3190614455565b60405180910390fd5b6000819050600660ff16815114610c86576040517f08c379a0000000000000000000000000000000000000000000000000000000008152600401610c7d90614315565b60405180910390fd5b60005b600660ff168161ffff161015610d7f576001600c6000848461ffff1681518110610cdc577f4e487b7100000000000000000000000000000000000000000000000000000000600052603260045260246000fd5b602001015160f81c60f81b7effffffffffffffffffffffffffffffffffffffffffffffffffffffffffffff19167effffffffffffffffffffffffffffffffffffffffffffffffffffffffffffff1916815260200190815260200160002060008282829054906101000a900460ff16610d54919061460b565b92506101000a81548160ff021916908360ff1602179055508080610d7790614869565b915050610c89565b508160079080519060200190610d96929190613609565b508060089080519060200190610dad92919061368f565b506001600960008282829054906101000a900460ff16610dcd919061460b565b92506101000a81548160ff021916908360ff16021790555042600b819055505050565b610e02610dfb611b25565b8383611ff1565b5050565b610e17610e11611b25565b83611be6565b610e56576040517f08c379a0000000000000000000000000000000000000000000000000000000008152600401610e4d90614495565b60405180910390fd5b610e628484848461215e565b50505050565b6060601060008381526020019081526020016000208054610e8890614806565b80601f0160208091040260200160405190810160405280929190818152602001828054610eb490614806565b8015610f015780601f10610ed657610100808354040283529160200191610f01565b820191906000526020600020905b815481529060010190602001808311610ee457829003601f168201915b50505050509050919050565b600e6020528060005260406000206000915090505481565b600a5481565b6000600560008473ffffffffffffffffffffffffffffffffffffffff1673ffffffffffffffffffffffffffffffffffffffff16815260200190815260200160002060008373ffffffffffffffffffffffffffffffffffffffff1673ffffffffffffffffffffffffffffffffffffffff16815260200190815260200160002060009054906101000a900460ff16905092915050565b600b54601160003373ffffffffffffffffffffffffffffffffffffffff1673ffffffffffffffffffffffffffffffffffffffff1681526020019081526020016000205410156110a0576000600d60003373ffffffffffffffffffffffffffffffffffffffff1673ffffffffffffffffffffffffffffffffffffffff16815260200190815260200160002060006101000a81548160ff021916908360ff16021790555061109f6040518060400160405280600c81526020017f414e4f544845522047414d4500000000000000000000000000000000000000008152506119b6565b5b600660ff16600d60003373ffffffffffffffffffffffffffffffffffffffff1673ffffffffffffffffffffffffffffffffffffffff16815260200190815260200160002060009054906101000a900460ff1660ff1610611135576040517f08c379a000000000000000000000000000000000000000000000000000000000815260040161112c906143f5565b60405180910390fd5b6000611140826121ba565b905042601160003373ffffffffffffffffffffffffffffffffffffffff1673ffffffffffffffffffffffffffffffffffffffff168152602001908152602001600020819055506001600d60003373ffffffffffffffffffffffffffffffffffffffff1673ffffffffffffffffffffffffffffffffffffffff16815260200190815260200160002060009054906101000a900460ff1660ff16106114b85761121b6040518060400160405280600b81526020017f477565737320616761696e0000000000000000000000000000000000000000008152506119b6565b600f6000600e60003373ffffffffffffffffffffffffffffffffffffffff1673ffffffffffffffffffffffffffffffffffffffff168152602001908152602001600020548152602001908152602001600020611276826128e3565b9080600181540180825580915050600190039060005260206000200160009091909190915090805190602001906112ae929190613609565b506113d9600f6000600e60003373ffffffffffffffffffffffffffffffffffffffff1673ffffffffffffffffffffffffffffffffffffffff168152602001908152602001600020548152602001908152602001600020805480602002602001604051908101604052809291908181526020016000905b828210156113d057838290600052602060002001805461134390614806565b80601f016020809104026020016040519081016040528092919081815260200182805461136f90614806565b80156113bc5780601f10611391576101008083540402835291602001916113bc565b820191906000526020600020905b81548152906001019060200180831161139f57829003601f168201915b505050505081526020019060010190611324565b50505050612a70565b60106000600e60003373ffffffffffffffffffffffffffffffffffffffff1673ffffffffffffffffffffffffffffffffffffffff168152602001908152602001600020548152602001908152602001600020908051906020019061143e929190613609565b506001600d60003373ffffffffffffffffffffffffffffffffffffffff1673ffffffffffffffffffffffffffffffffffffffff16815260200190815260200160002060008282829054906101000a900460ff1661149b919061460b565b92506101000a81548160ff021916908360ff1602179055506117fb565b6114f66040518060400160405280601e81526020017f47656e65726174696e67206461746120666f722066697273742074696d6500008152506119b6565b600a54600e60003373ffffffffffffffffffffffffffffffffffffffff1673ffffffffffffffffffffffffffffffffffffffff1681526020019081526020016000208190555061154833600a54612f0b565b6001600a600082825461155b91906145b5565b92505081905550600f6000600e60003373ffffffffffffffffffffffffffffffffffffffff1673ffffffffffffffffffffffffffffffffffffffff1681526020019081526020016000205481526020019081526020016000206115bd826128e3565b9080600181540180825580915050600190039060005260206000200160009091909190915090805190602001906115f5929190613609565b50611720600f6000600e60003373ffffffffffffffffffffffffffffffffffffffff1673ffffffffffffffffffffffffffffffffffffffff168152602001908152602001600020548152602001908152602001600020805480602002602001604051908101604052809291908181526020016000905b8282101561171757838290600052602060002001805461168a90614806565b80601f01602080910402602001604051908101604052809291908181526020018280546116b690614806565b80156117035780601f106116d857610100808354040283529160200191611703565b820191906000526020600020905b8154815290600101906020018083116116e657829003601f168201915b50505050508152602001906001019061166b565b50505050612a70565b60106000600e60003373ffffffffffffffffffffffffffffffffffffffff1673ffffffffffffffffffffffffffffffffffffffff1681526020019081526020016000205481526020019081526020016000209080519060200190611785929190613609565b506001600d60003373ffffffffffffffffffffffffffffffffffffffff1673ffffffffffffffffffffffffffffffffffffffff16815260200190815260200160002060008282829054906101000a900460ff166117e2919061460b565b92506101000a81548160ff021916908360ff1602179055505b5050565b600b5481565b61180d611b25565b73ffffffffffffffffffffffffffffffffffffffff1661182b610b02565b73ffffffffffffffffffffffffffffffffffffffff1614611881576040517f08c379a000000000000000000000000000000000000000000000000000000000815260040161187890614455565b60405180910390fd5b600073ffffffffffffffffffffffffffffffffffffffff168173ffffffffffffffffffffffffffffffffffffffff1614156118f1576040517f08c379a00000000000000000000000000000000000000000000000000000000081526004016118e8906142b5565b60405180910390fd5b6118fa81611f2b565b50565b600f602052816000526040600020818154811061191957600080fd5b9060005260206000200160009150915050805461193590614806565b80601f016020809104026020016040519081016040528092919081815260200182805461196190614806565b80156119ae5780601f10611983576101008083540402835291602001916119ae565b820191906000526020600020905b81548152906001019060200180831161199157829003601f168201915b505050505081565b611a4c816040516024016119ca9190614273565b6040516020818303038152906040527f41304fac000000000000000000000000000000000000000000000000000000007bffffffffffffffffffffffffffffffffffffffffffffffffffffffff19166020820180517bffffffffffffffffffffffffffffffffffffffffffffffffffffffff83818316178352505050506130e5565b50565b60007f01ffc9a7000000000000000000000000000000000000000000000000000000007bffffffffffffffffffffffffffffffffffffffffffffffffffffffff1916827bffffffffffffffffffffffffffffffffffffffffffffffffffffffff1916149050919050565b60008073ffffffffffffffffffffffffffffffffffffffff166002600084815260200190815260200160002060009054906101000a900473ffffffffffffffffffffffffffffffffffffffff1673ffffffffffffffffffffffffffffffffffffffff1614159050919050565b600033905090565b816004600083815260200190815260200160002060006101000a81548173ffffffffffffffffffffffffffffffffffffffff021916908373ffffffffffffffffffffffffffffffffffffffff160217905550808273ffffffffffffffffffffffffffffffffffffffff16611ba0836108d8565b73ffffffffffffffffffffffffffffffffffffffff167f8c5be1e5ebec7d5bd14f71427d1e84f3dd0314c0f7b2291e5b200ac8c7c3b92560405160405180910390a45050565b6000611bf182611ab9565b611c30576040517f08c379a0000000000000000000000000000000000000000000000000000000008152600401611c2790614375565b60405180910390fd5b6000611c3b836108d8565b90508073ffffffffffffffffffffffffffffffffffffffff168473ffffffffffffffffffffffffffffffffffffffff161480611caa57508373ffffffffffffffffffffffffffffffffffffffff16611c92846106b6565b73ffffffffffffffffffffffffffffffffffffffff16145b80611cbb5750611cba8185610f2b565b5b91505092915050565b8273ffffffffffffffffffffffffffffffffffffffff16611ce4826108d8565b73ffffffffffffffffffffffffffffffffffffffff1614611d3a576040517f08c379a0000000000000000000000000000000000000000000000000000000008152600401611d31906142d5565b60405180910390fd5b600073ffffffffffffffffffffffffffffffffffffffff168273ffffffffffffffffffffffffffffffffffffffff161415611daa576040517f08c379a0000000000000000000000000000000000000000000000000000000008152600401611da190614335565b60405180910390fd5b611db583838361310e565b611dc0600082611b2d565b6001600360008573ffffffffffffffffffffffffffffffffffffffff1673ffffffffffffffffffffffffffffffffffffffff1681526020019081526020016000206000828254611e1091906146cd565b925050819055506001600360008473ffffffffffffffffffffffffffffffffffffffff1673ffffffffffffffffffffffffffffffffffffffff1681526020019081526020016000206000828254611e6791906145b5565b92505081905550816002600083815260200190815260200160002060006101000a81548173ffffffffffffffffffffffffffffffffffffffff021916908373ffffffffffffffffffffffffffffffffffffffff160217905550808273ffffffffffffffffffffffffffffffffffffffff168473ffffffffffffffffffffffffffffffffffffffff167fddf252ad1be2c89b69c2b068fc378daa952ba7f163c4a11628f55a4df523b3ef60405160405180910390a4611f26838383613113565b505050565b6000600660009054906101000a900473ffffffffffffffffffffffffffffffffffffffff16905081600660006101000a81548173ffffffffffffffffffffffffffffffffffffffff021916908373ffffffffffffffffffffffffffffffffffffffff1602179055508173ffffffffffffffffffffffffffffffffffffffff168173ffffffffffffffffffffffffffffffffffffffff167f8be0079c531659141344cd1fd0a4f28419497f9722a3daafe3b4186f6b6457e060405160405180910390a35050565b8173ffffffffffffffffffffffffffffffffffffffff168373ffffffffffffffffffffffffffffffffffffffff161415612060576040517f08c379a000000000000000000000000000000000000000000000000000000000815260040161205790614355565b60405180910390fd5b80600560008573ffffffffffffffffffffffffffffffffffffffff1673ffffffffffffffffffffffffffffffffffffffff16815260200190815260200160002060008473ffffffffffffffffffffffffffffffffffffffff1673ffffffffffffffffffffffffffffffffffffffff16815260200190815260200160002060006101000a81548160ff0219169083151502179055508173ffffffffffffffffffffffffffffffffffffffff168373ffffffffffffffffffffffffffffffffffffffff167f17307eab39ab6107e8899845ad3d59bd9653f200f220920489ca2b5937696c31836040516121519190614258565b60405180910390a3505050565b612169848484611cc4565b61217584848484613118565b6121b4576040517f08c379a00000000000000000000000000000000000000000000000000000000081526004016121ab90614295565b60405180910390fd5b50505050565b6121c2613715565b60006040518060c00160405280600060ff168152602001600060ff168152602001600060ff168152602001600060ff168152602001600060ff168152602001600060ff1681525090506000600c905060005b600660ff168161ffff16101561234d57600182600060088461ffff16815461223b90614806565b8110612270577f4e487b7100000000000000000000000000000000000000000000000000000000600052603260045260246000fd5b81546001161561228f5790600052602060002090602091828204019190065b9054901a7f0100000000000000000000000000000000000000000000000000000000000000027effffffffffffffffffffffffffffffffffffffffffffffffffffffffffffff19167effffffffffffffffffffffffffffffffffffffffffffffffffffffffffffff1916815260200190815260200160002060008282829054906101000a900460ff16612322919061460b565b92506101000a81548160ff021916908360ff160217905550808061234590614869565b915050612214565b506000805b600660ff168161ffff16101561285f576000836000888461ffff16815181106123a4577f4e487b7100000000000000000000000000000000000000000000000000000000600052603260045260246000fd5b602001015160f81c60f81b7effffffffffffffffffffffffffffffffffffffffffffffffffffffffffffff19167effffffffffffffffffffffffffffffffffffffffffffffffffffffffffffff1916815260200190815260200160002060009054906101000a900460ff1660ff16141561241d5761284c565b858161ffff168151811061245a577f4e487b7100000000000000000000000000000000000000000000000000000000600052603260045260246000fd5b602001015160f81c60f81b7effffffffffffffffffffffffffffffffffffffffffffffffffffffffffffff191660088261ffff16815461249990614806565b81106124ce577f4e487b7100000000000000000000000000000000000000000000000000000000600052603260045260246000fd5b8154600116156124ed5790600052602060002090602091828204019190065b9054901a7f0100000000000000000000000000000000000000000000000000000000000000027effffffffffffffffffffffffffffffffffffffffffffffffffffffffffffff19161415612671576001848261ffff166006811061257a577f4e487b7100000000000000000000000000000000000000000000000000000000600052603260045260246000fd5b602002019060ff16908160ff16815250506001836000888461ffff16815181106125cd577f4e487b7100000000000000000000000000000000000000000000000000000000600052603260045260246000fd5b602001015160f81c60f81b7effffffffffffffffffffffffffffffffffffffffffffffffffffffffffffff19167effffffffffffffffffffffffffffffffffffffffffffffffffffffffffffff1916815260200190815260200160002060008282829054906101000a900460ff166126459190614701565b92506101000a81548160ff021916908360ff16021790555060018261266a919061460b565b915061284b565b6001836000888461ffff16815181106126b3577f4e487b7100000000000000000000000000000000000000000000000000000000600052603260045260246000fd5b602001015160f81c60f81b7effffffffffffffffffffffffffffffffffffffffffffffffffffffffffffff19167effffffffffffffffffffffffffffffffffffffffffffffffffffffffffffff1916815260200190815260200160002060009054906101000a900460ff1660ff16111561284a576002848261ffff1660068110612766577f4e487b7100000000000000000000000000000000000000000000000000000000600052603260045260246000fd5b602002019060ff16908160ff16815250506001836000888461ffff16815181106127b9577f4e487b7100000000000000000000000000000000000000000000000000000000600052603260045260246000fd5b602001015160f81c60f81b7effffffffffffffffffffffffffffffffffffffffffffffffffffffffffffff19167effffffffffffffffffffffffffffffffffffffffffffffffffffffffffffff1916815260200190815260200160002060008282829054906101000a900460ff166128319190614701565b92506101000a81548160ff021916908360ff1602179055505b5b5b808061285790614869565b915050612352565b5060008160ff161180156128795750600660ff168160ff16145b156128d8576006600d60003373ffffffffffffffffffffffffffffffffffffffff1673ffffffffffffffffffffffffffffffffffffffff16815260200190815260200160002060006101000a81548160ff021916908360ff1602179055505b829350505050919050565b60608060005b600660ff168161ffff161015612a66576000848261ffff1660068110612938577f4e487b7100000000000000000000000000000000000000000000000000000000600052603260045260246000fd5b602002015160ff16141561296d578160405160200161295791906140ac565b6040516020818303038152906040529150612a53565b6001848261ffff16600681106129ac577f4e487b7100000000000000000000000000000000000000000000000000000000600052603260045260246000fd5b602002015160ff1614156129e157816040516020016129cb91906140ce565b6040516020818303038152906040529150612a52565b6002848261ffff1660068110612a20577f4e487b7100000000000000000000000000000000000000000000000000000000600052603260045260246000fd5b602002015160ff161415612a515781604051602001612a3f919061408a565b60405160208183030381529060405291505b5b5b8080612a5e90614869565b9150506128e9565b5080915050919050565b6060612a7a613737565b606060006040518060800160405280605f8152602001615397605f9139905060006012905060005b86518160ff161015612b445783612abb8360ff166132af565b888360ff1681518110612af7577f4e487b7100000000000000000000000000000000000000000000000000000000600052603260045260246000fd5b6020026020010151604051602001612b11939291906140f0565b6040516020818303038152906040529350600a82612b2f919061460b565b91508080612b3c906148dd565b915050612aa2565b50604051806101400160405280610109815260200161524e610109913984600060048110612b9b577f4e487b7100000000000000000000000000000000000000000000000000000000600052603260045260246000fd5b60200201819052508184600160048110612bde577f4e487b7100000000000000000000000000000000000000000000000000000000600052603260045260246000fd5b60200201819052508284600260048110612c21577f4e487b7100000000000000000000000000000000000000000000000000000000600052603260045260246000fd5b60200201819052506040518060400160405280600681526020017f3c2f7376673e000000000000000000000000000000000000000000000000000081525084600360048110612c99577f4e487b7100000000000000000000000000000000000000000000000000000000600052603260045260246000fd5b60200201819052506000612eda612cc1600960009054906101000a900460ff1660ff166132af565b612d19600d60003373ffffffffffffffffffffffffffffffffffffffff1673ffffffffffffffffffffffffffffffffffffffff16815260200190815260200160002060009054906101000a900460ff1660ff166132af565b612e3f88600060048110612d56577f4e487b7100000000000000000000000000000000000000000000000000000000600052603260045260246000fd5b602002015189600160048110612d95577f4e487b7100000000000000000000000000000000000000000000000000000000600052603260045260246000fd5b60200201518a600260048110612dd4577f4e487b7100000000000000000000000000000000000000000000000000000000600052603260045260246000fd5b60200201518b600360048110612e13577f4e487b7100000000000000000000000000000000000000000000000000000000600052603260045260246000fd5b6020020151604051602001612e2b949392919061404c565b60405160208183030381529060405261345c565b612e5a600960009054906101000a900460ff1660ff166132af565b612eb2600d60003373ffffffffffffffffffffffffffffffffffffffff1673ffffffffffffffffffffffffffffffffffffffff16815260200190815260200160002060009054906101000a900460ff1660ff166132af565b604051602001612ec6959493929190614164565b60405160208183030381529060405261345c565b905080604051602001612eed9190614142565b60405160208183030381529060405290508095505050505050919050565b600073ffffffffffffffffffffffffffffffffffffffff168273ffffffffffffffffffffffffffffffffffffffff161415612f7b576040517f08c379a0000000000000000000000000000000000000000000000000000000008152600401612f7290614415565b60405180910390fd5b612f8481611ab9565b15612fc4576040517f08c379a0000000000000000000000000000000000000000000000000000000008152600401612fbb906142f5565b60405180910390fd5b612fd06000838361310e565b6001600360008473ffffffffffffffffffffffffffffffffffffffff1673ffffffffffffffffffffffffffffffffffffffff168152602001908152602001600020600082825461302091906145b5565b92505081905550816002600083815260200190815260200160002060006101000a81548173ffffffffffffffffffffffffffffffffffffffff021916908373ffffffffffffffffffffffffffffffffffffffff160217905550808273ffffffffffffffffffffffffffffffffffffffff16600073ffffffffffffffffffffffffffffffffffffffff167fddf252ad1be2c89b69c2b068fc378daa952ba7f163c4a11628f55a4df523b3ef60405160405180910390a46130e160008383613113565b5050565b60008151905060006a636f6e736f6c652e6c6f679050602083016000808483855afa5050505050565b505050565b505050565b60006131398473ffffffffffffffffffffffffffffffffffffffff166135e6565b156132a2578373ffffffffffffffffffffffffffffffffffffffff1663150b7a02613162611b25565b8786866040518563ffffffff1660e01b8152600401613184949392919061420c565b602060405180830381600087803b15801561319e57600080fd5b505af19250505080156131cf57506040513d601f19601f820116820180604052508101906131cc9190613a84565b60015b613252573d80600081146131ff576040519150601f19603f3d011682016040523d82523d6000602084013e613204565b606091505b5060008151141561324a576040517f08c379a000000000000000000000000000000000000000000000000000000000815260040161324190614295565b60405180910390fd5b805181602001fd5b63150b7a0260e01b7bffffffffffffffffffffffffffffffffffffffffffffffffffffffff1916817bffffffffffffffffffffffffffffffffffffffffffffffffffffffff1916149150506132a7565b600190505b949350505050565b606060008214156132f7576040518060400160405280600181526020017f30000000000000000000000000000000000000000000000000000000000000008152509050613457565b600082905060005b6000821461332957808061331290614894565b915050600a826133229190614642565b91506132ff565b60008167ffffffffffffffff81111561336b577f4e487b7100000000000000000000000000000000000000000000000000000000600052604160045260246000fd5b6040519080825280601f01601f19166020018201604052801561339d5781602001600182028036833780820191505090505b5090505b60008514613450576001826133b691906146cd565b9150600a856133c59190614907565b60306133d191906145b5565b60f81b81838151811061340d577f4e487b7100000000000000000000000000000000000000000000000000000000600052603260045260246000fd5b60200101907effffffffffffffffffffffffffffffffffffffffffffffffffffffffffffff1916908160001a905350600a856134499190614642565b94506133a1565b8093505050505b919050565b606060008251141561347f576040518060200160405280600081525090506135e1565b600060405180606001604052806040815260200161535760409139905060006003600285516134ae91906145b5565b6134b89190614642565b60046134c49190614673565b67ffffffffffffffff811115613503577f4e487b7100000000000000000000000000000000000000000000000000000000600052604160045260246000fd5b6040519080825280601f01601f1916602001820160405280156135355781602001600182028036833780820191505090505b509050600182016020820185865187015b808210156135a1576003820191508151603f8160121c168501518453600184019350603f81600c1c168501518453600184019350603f8160061c168501518453600184019350603f8116850151845360018401935050613546565b50506003865106600181146135bd57600281146135d0576135d8565b603d6001830353603d60028303536135d8565b603d60018303535b50505080925050505b919050565b6000808273ffffffffffffffffffffffffffffffffffffffff163b119050919050565b82805461361590614806565b90600052602060002090601f016020900481019282613637576000855561367e565b82601f1061365057805160ff191683800117855561367e565b8280016001018555821561367e579182015b8281111561367d578251825591602001919060010190613662565b5b50905061368b919061375e565b5090565b82805461369b90614806565b90600052602060002090601f0160209004810192826136bd5760008555613704565b82601f106136d657805160ff1916838001178555613704565b82800160010185558215613704579182015b828111156137035782518255916020019190600101906136e8565b5b509050613711919061375e565b5090565b6040518060c00160405280600690602082028036833780820191505090505090565b60405180608001604052806004905b60608152602001906001900390816137465790505090565b5b8082111561377757600081600090555060010161375f565b5090565b600061378e61378984614510565b6144eb565b9050828152602081018484840111156137a657600080fd5b6137b18482856147c4565b509392505050565b60006137cc6137c784614541565b6144eb565b9050828152602081018484840111156137e457600080fd5b6137ef8482856147c4565b509392505050565b600081359050613806816151f1565b92915050565b60008135905061381b81615208565b92915050565b6000813590506138308161521f565b92915050565b6000815190506138458161521f565b92915050565b600082601f83011261385c57600080fd5b813561386c84826020860161377b565b91505092915050565b600082601f83011261388657600080fd5b81356138968482602086016137b9565b91505092915050565b6000813590506138ae81615236565b92915050565b6000602082840312156138c657600080fd5b60006138d4848285016137f7565b91505092915050565b600080604083850312156138f057600080fd5b60006138fe858286016137f7565b925050602061390f858286016137f7565b9150509250929050565b60008060006060848603121561392e57600080fd5b600061393c868287016137f7565b935050602061394d868287016137f7565b925050604061395e8682870161389f565b9150509250925092565b6000806000806080858703121561397e57600080fd5b600061398c878288016137f7565b945050602061399d878288016137f7565b93505060406139ae8782880161389f565b925050606085013567ffffffffffffffff8111156139cb57600080fd5b6139d78782880161384b565b91505092959194509250565b600080604083850312156139f657600080fd5b6000613a04858286016137f7565b9250506020613a158582860161380c565b9150509250929050565b60008060408385031215613a3257600080fd5b6000613a40858286016137f7565b9250506020613a518582860161389f565b9150509250929050565b600060208284031215613a6d57600080fd5b6000613a7b84828501613821565b91505092915050565b600060208284031215613a9657600080fd5b6000613aa484828501613836565b91505092915050565b600060208284031215613abf57600080fd5b600082013567ffffffffffffffff811115613ad957600080fd5b613ae584828501613875565b91505092915050565b600060208284031215613b0057600080fd5b6000613b0e8482850161389f565b91505092915050565b60008060408385031215613b2a57600080fd5b6000613b388582860161389f565b9250506020613b498582860161389f565b9150509250929050565b613b5c81614735565b82525050565b613b6b81614747565b82525050565b6000613b7c82614572565b613b868185614588565b9350613b968185602086016147d3565b613b9f816149f4565b840191505092915050565b6000613bb58261457d565b613bbf8185614599565b9350613bcf8185602086016147d3565b613bd8816149f4565b840191505092915050565b6000613bee8261457d565b613bf881856145aa565b9350613c088185602086016147d3565b80840191505092915050565b6000613c216040836145aa565b9150613c2c82614a05565b604082019050919050565b6000613c44603283614599565b9150613c4f82614a54565b604082019050919050565b6000613c67602683614599565b9150613c7282614aa3565b604082019050919050565b6000613c8a602583614599565b9150613c9582614af2565b604082019050919050565b6000613cad6085836145aa565b9150613cb882614b41565b608582019050919050565b6000613cd0601c83614599565b9150613cdb82614c02565b602082019050919050565b6000613cf36023836145aa565b9150613cfe82614c2b565b602382019050919050565b6000613d16603883614599565b9150613d2182614c7a565b604082019050919050565b6000613d396004836145aa565b9150613d4482614cc9565b600482019050919050565b6000613d5c602483614599565b9150613d6782614cf2565b604082019050919050565b6000613d7f601983614599565b9150613d8a82614d41565b602082019050919050565b6000613da26003836145aa565b9150613dad82614d6a565b600382019050919050565b6000613dc5602c83614599565b9150613dd082614d93565b604082019050919050565b6000613de8603883614599565b9150613df382614de2565b604082019050919050565b6000613e0b602a83614599565b9150613e1682614e31565b604082019050919050565b6000613e2e602983614599565b9150613e3982614e80565b604082019050919050565b6000613e516038836145aa565b9150613e5c82614ecf565b603882019050919050565b6000613e74603783614599565b9150613e7f82614f1e565b604082019050919050565b6000613e976007836145aa565b9150613ea282614f6d565b600782019050919050565b6000613eba602083614599565b9150613ec582614f96565b602082019050919050565b6000613edd602c83614599565b9150613ee882614fbf565b604082019050919050565b6000613f00602083614599565b9150613f0b8261500e565b602082019050919050565b6000613f23602183614599565b9150613f2e82615037565b604082019050919050565b6000613f466004836145aa565b9150613f5182615086565b600482019050919050565b6000613f69601d836145aa565b9150613f74826150af565b601d82019050919050565b6000613f8c6012836145aa565b9150613f97826150d8565b601282019050919050565b6000613faf603183614599565b9150613fba82615101565b604082019050919050565b6000613fd26011836145aa565b9150613fdd82615150565b601182019050919050565b6000613ff5602c836145aa565b915061400082615179565b602c82019050919050565b60006140186004836145aa565b9150614023826151c8565b600482019050919050565b614037816147ad565b82525050565b614046816147b7565b82525050565b60006140588287613be3565b91506140648286613be3565b91506140708285613be3565b915061407c8284613be3565b915081905095945050505050565b60006140968284613be3565b91506140a182613d2c565b915081905092915050565b60006140b88284613be3565b91506140c382613d95565b915081905092915050565b60006140da8284613be3565b91506140e582613f39565b915081905092915050565b60006140fc8286613be3565b915061410782613fc5565b91506141138285613be3565b915061411e82613c14565b915061412a8284613be3565b915061413582613e8a565b9150819050949350505050565b600061414d82613f5c565b91506141598284613be3565b915081905092915050565b600061416f82613f7f565b915061417b8288613be3565b915061418682613ce6565b91506141928287613be3565b915061419d82613ca0565b91506141a98286613be3565b91506141b482613e44565b91506141c08285613be3565b91506141cb82613fe8565b91506141d78284613be3565b91506141e28261400b565b91508190509695505050505050565b60006020820190506142066000830184613b53565b92915050565b60006080820190506142216000830187613b53565b61422e6020830186613b53565b61423b604083018561402e565b818103606083015261424d8184613b71565b905095945050505050565b600060208201905061426d6000830184613b62565b92915050565b6000602082019050818103600083015261428d8184613baa565b905092915050565b600060208201905081810360008301526142ae81613c37565b9050919050565b600060208201905081810360008301526142ce81613c5a565b9050919050565b600060208201905081810360008301526142ee81613c7d565b9050919050565b6000602082019050818103600083015261430e81613cc3565b9050919050565b6000602082019050818103600083015261432e81613d09565b9050919050565b6000602082019050818103600083015261434e81613d4f565b9050919050565b6000602082019050818103600083015261436e81613d72565b9050919050565b6000602082019050818103600083015261438e81613db8565b9050919050565b600060208201905081810360008301526143ae81613ddb565b9050919050565b600060208201905081810360008301526143ce81613dfe565b9050919050565b600060208201905081810360008301526143ee81613e21565b9050919050565b6000602082019050818103600083015261440e81613e67565b9050919050565b6000602082019050818103600083015261442e81613ead565b9050919050565b6000602082019050818103600083015261444e81613ed0565b9050919050565b6000602082019050818103600083015261446e81613ef3565b9050919050565b6000602082019050818103600083015261448e81613f16565b9050919050565b600060208201905081810360008301526144ae81613fa2565b9050919050565b60006020820190506144ca600083018461402e565b92915050565b60006020820190506144e5600083018461403d565b92915050565b60006144f5614506565b90506145018282614838565b919050565b6000604051905090565b600067ffffffffffffffff82111561452b5761452a6149c5565b5b614534826149f4565b9050602081019050919050565b600067ffffffffffffffff82111561455c5761455b6149c5565b5b614565826149f4565b9050602081019050919050565b600081519050919050565b600081519050919050565b600082825260208201905092915050565b600082825260208201905092915050565b600081905092915050565b60006145c0826147ad565b91506145cb836147ad565b9250827fffffffffffffffffffffffffffffffffffffffffffffffffffffffffffffffff03821115614600576145ff614938565b5b828201905092915050565b6000614616826147b7565b9150614621836147b7565b92508260ff0382111561463757614636614938565b5b828201905092915050565b600061464d826147ad565b9150614658836147ad565b92508261466857614667614967565b5b828204905092915050565b600061467e826147ad565b9150614689836147ad565b9250817fffffffffffffffffffffffffffffffffffffffffffffffffffffffffffffffff04831182151516156146c2576146c1614938565b5b828202905092915050565b60006146d8826147ad565b91506146e3836147ad565b9250828210156146f6576146f5614938565b5b828203905092915050565b600061470c826147b7565b9150614717836147b7565b92508282101561472a57614729614938565b5b828203905092915050565b60006147408261478d565b9050919050565b60008115159050919050565b60007fffffffff0000000000000000000000000000000000000000000000000000000082169050919050565b600061ffff82169050919050565b600073ffffffffffffffffffffffffffffffffffffffff82169050919050565b6000819050919050565b600060ff82169050919050565b82818337600083830152505050565b60005b838110156147f15780820151818401526020810190506147d6565b83811115614800576000848401525b50505050565b6000600282049050600182168061481e57607f821691505b6020821081141561483257614831614996565b5b50919050565b614841826149f4565b810181811067ffffffffffffffff821117156148605761485f6149c5565b5b80604052505050565b60006148748261477f565b915061ffff82141561488957614888614938565b5b600182019050919050565b600061489f826147ad565b91507fffffffffffffffffffffffffffffffffffffffffffffffffffffffffffffffff8214156148d2576148d1614938565b5b600182019050919050565b60006148e8826147b7565b915060ff8214156148fc576148fb614938565b5b600182019050919050565b6000614912826147ad565b915061491d836147ad565b92508261492d5761492c614967565b5b828206905092915050565b7f4e487b7100000000000000000000000000000000000000000000000000000000600052601160045260246000fd5b7f4e487b7100000000000000000000000000000000000000000000000000000000600052601260045260246000fd5b7f4e487b7100000000000000000000000000000000000000000000000000000000600052602260045260246000fd5b7f4e487b7100000000000000000000000000000000000000000000000000000000600052604160045260246000fd5b6000601f19601f8301169050919050565b7f252220636c6173733d22626173652220646f6d696e616e742d626173656c696e60008201527f653d226d6964646c652220746578742d616e63686f723d226d6964646c65223e602082015250565b7f4552433732313a207472616e7366657220746f206e6f6e20455243373231526560008201527f63656976657220696d706c656d656e7465720000000000000000000000000000602082015250565b7f4f776e61626c653a206e6577206f776e657220697320746865207a65726f206160008201527f6464726573730000000000000000000000000000000000000000000000000000602082015250565b7f4552433732313a207472616e736665722066726f6d20696e636f72726563742060008201527f6f776e6572000000000000000000000000000000000000000000000000000000602082015250565b7f2e20496e73706972656420627920576f72646c652e2053686f756c6420616e7960008201527f6f6e652061637475616c6c792075736520746869733f204e6f2e20492074686f60208201527f7567687420697420776f756c6420626520612066756e2070726f6a656374222c60408201527f2022696d616765223a2022646174613a696d6167652f7376672b786d6c3b626160608201527f736536342c000000000000000000000000000000000000000000000000000000608082015250565b7f4552433732313a20746f6b656e20616c7265616479206d696e74656400000000600082015250565b7f222c226465736372697074696f6e223a202255736572206973206f6e2074727960008201527f2023200000000000000000000000000000000000000000000000000000000000602082015250565b7f546865206e65772073656372657420776f726420646f6573206e6f742068617660008201527f652074686520636f7272656374206d61784c6574746572730000000000000000602082015250565b7ff09f9fa800000000000000000000000000000000000000000000000000000000600082015250565b7f4552433732313a207472616e7366657220746f20746865207a65726f2061646460008201527f7265737300000000000000000000000000000000000000000000000000000000602082015250565b7f4552433732313a20617070726f766520746f2063616c6c657200000000000000600082015250565b7fe2ac9b0000000000000000000000000000000000000000000000000000000000600082015250565b7f4552433732313a206f70657261746f7220717565727920666f72206e6f6e657860008201527f697374656e7420746f6b656e0000000000000000000000000000000000000000602082015250565b7f4552433732313a20617070726f76652063616c6c6572206973206e6f74206f7760008201527f6e6572206e6f7220617070726f76656420666f7220616c6c0000000000000000602082015250565b7f4552433732313a2062616c616e636520717565727920666f7220746865207a6560008201527f726f206164647265737300000000000000000000000000000000000000000000602082015250565b7f4552433732313a206f776e657220717565727920666f72206e6f6e657869737460008201527f656e7420746f6b656e0000000000000000000000000000000000000000000000602082015250565b7f222c2261747472696275746573223a205b7b20222074726169745f747970652060008201527f22203a20224e6f72646c652023222c2276616c7565223a220000000000000000602082015250565b7f4d61786564206f7574206775657373657320666f722074686973204e6f72646c60008201527f65206f7220616c726561647920736f6c76656420697421000000000000000000602082015250565b7f3c2f746578743e00000000000000000000000000000000000000000000000000600082015250565b7f4552433732313a206d696e7420746f20746865207a65726f2061646472657373600082015250565b7f4552433732313a20617070726f76656420717565727920666f72206e6f6e657860008201527f697374656e7420746f6b656e0000000000000000000000000000000000000000602082015250565b7f4f776e61626c653a2063616c6c6572206973206e6f7420746865206f776e6572600082015250565b7f4552433732313a20617070726f76616c20746f2063757272656e74206f776e6560008201527f7200000000000000000000000000000000000000000000000000000000000000602082015250565b7ff09f9fa900000000000000000000000000000000000000000000000000000000600082015250565b7f646174613a6170706c69636174696f6e2f6a736f6e3b6261736536342c000000600082015250565b7f7b226e616d65223a20224e6f72646c6520230000000000000000000000000000600082015250565b7f4552433732313a207472616e736665722063616c6c6572206973206e6f74206f60008201527f776e6572206e6f7220617070726f766564000000000000000000000000000000602082015250565b7f3c7465787420783d223530252220793d22000000000000000000000000000000600082015250565b7f227d2c207b20222074726169745f7479706520223a202255736572205472696560008201527f73222c2276616c7565223a220000000000000000000000000000000000000000602082015250565b7f227d5d7d00000000000000000000000000000000000000000000000000000000600082015250565b6151fa81614735565b811461520557600080fd5b50565b61521181614747565b811461521c57600080fd5b50565b61522881614753565b811461523357600080fd5b50565b61523f816147ad565b811461524a57600080fd5b5056fe3c73766720786d6c6e733d22687474703a2f2f7777772e77332e6f72672f323030302f73766722207072657365727665417370656374526174696f3d22784d696e594d696e206d656574222076696577426f783d223020302033353020333530223e3c7374796c653e2e62617365207b2066696c6c3a2077686974653b20666f6e742d66616d696c793a2073657269663b20666f6e742d73697a653a20313870783b207d202e6865616465727b20666f6e742d73697a653a20333470783b20666f6e742d66616d696c793a2022436c6561722053616e73222c202248656c766574696361204e657565222c20417269616c2c2073616e732d73657269663b20207d3c2f7374796c653e4142434445464748494a4b4c4d4e4f505152535455565758595a6162636465666768696a6b6c6d6e6f707172737475767778797a303132333435363738392b2f3c7465787420783d223530252220793d22313025222069643d226865616465722220646f6d696e616e742d626173656c696e653d226d6964646c652220746578742d616e63686f723d226d6964646c65223e4e6f72646c653c2f746578743ea2646970667358221220cf2be2a10e874d722eb91631bc60d7698414f401d1b9ca7e768e83f5128b078e64736f6c63430008010033",
  "linkReferences": {},
  "deployedLinkReferences": {}
}